:10000000313239362C323430362C313334382C32CC
:100010003530342C313333362C323438302C3133C4
:1000200038312C323536352C313332392C323436A6
:10003000372C313239392C323431322C3132393596
:100040002C323430352C313239342C323430342C9B
:10005000313238342C323338342C313235302C3282
:100060003332322C313539372C323936372C313561
:1000700035332C323838332C313533372C32383550
:10008000342C313533322C323834362C313531334F
:100090002C323830392C313531332C323831312C47
:1000A000313530322C323738392C313439392C3221
:1000B0003738352C313436362C323732322C2D331A
:1000C0003030302C31303030302C0D0A3133333376
:1000D0002C323437352C313335352C323531362C02
:1000E000313336362C323533362C313339322C32EB
:1000F0003538362C313337312C323534352C3133D9
:1001000033362C323438322C313333332C323437CB
:10011000352C313333322C323437342C31333231C5
:100120002C323435332C313238362C323338382CAB
:10013000313430362C323631322C313430362C32A8
:100140003631322C313430342C323630382C313494
:1001500031302C323631382C313339382C32353974
:10016000362C313430342C323630382C3133393768
:100170002C323539342C313430302C323630302C6E
:10018000313339302C323538322C323638352C3444
:100190003938362C0D0A313333332C323437352C81
:1001A000313335362C323531382C313336312C322F
:1001B0003532372C313336352C323533352C31331B
:1001C00037382C323535382C313334392C32353000
:1001D000352C313334372C323530312C3133343502
:1001E0002C323439392C313333362C323438322CEA
:1001F000313330392C323433312C313339342C32E1
:100200003538382C313339332C323538372C3133BB
:1002100039322C323538342C313339362C323539A9
:10022000322C313338342C323537302C31333931AC
:100230002C323538332C313338322C323536362C9B
:10024000313338332C323536392C313335302C328A
:100250003530362C2D333030302C31303030302C9E
:100260000D0A313333382C323438362C31333632B0
:100270002C323532392C313338322C323536362C5B
:10028000313337302C323534342C313430382C3251
:100290003631362C313334382C323530342C31333E
:1002A00034352C323439372C313334342C32343920
:1002B000362C313333342C323437382C313330321E
:1002C0002C323431382C313337382C323535382C08
:1002D000313337382C323536302C313337382C32F5
:1002E0003535382C313338312C323536352C3133E5
:1002F00036392C323534332C313337372C323535CF
:10030000372C313336372C323533392C31333639BB
:100310002C323534332C313333342C323437382CBF
:100320002D333030302C31303030302C0D0A313319
:1003300034372C323530312C313336372C3235339B
:10034000392C313431332C323632332C3134303293
:100350002C323630342C313430382C323631342C87
:10036000313335342C323531342C313334382C326E
:100370003530342C313334372C323530312C313365
:1003800033362C323438322C313330352C3234324F
:10039000332C313336362C323533382C3133363337
:1003A0002C323533312C313336322C323532392C34
:1003B000313336362C323533362C313335312C321D
:1003C0003530392C313335392C323532352C313307
:1003D00034382C323530342C313335322C323531FF
:1003E000302C313334302C323438382C32363538E6
:1003F0002C343933362C0D0A313335312C3235302B
:10040000392C313337332C323535312C31333738C1
:100410002C323536302C313338332C323536392CBA
:10042000313431382C323633332C313337372C32A8
:100430003535372C313335382C323532322C313397
:1004400035372C323531392C313334362C32353086
:10045000302C313331382C323434382C313337347A
:100460002C323535322C313336302C323532362C75
:10047000313335362C323531382C313335392C3255
:100480003532332C313334352C323439372C313347
:1004900035342C323531342C313334322C3234393A
:1004A000322C313334332C323439332C313330372E
:1004B0002C323432372C2D333030302C3130303038
:1004C000302C0D0A313336322C323532392C31335F
:1004D00039322C323538362C313339322C323538EA
:1004E000362C313338372C323537352C31333831DF
:1004F0002C323536352C313432392C323635352CD8
:10050000313337392C323536312C313336362C32C3
:100510003533382C313335372C323531392C3133B2
:1005200032392C323436372C313334322C323439A0
:10053000322C313334312C323439312C31333431A3
:100540002C323439312C313334362C323530302C96
:10055000313333312C323437332C313334312C3284
:100560003439312C313332392C323436372C313363
:1005700033312C323437312C313239342C3234305F
:10058000322C2D333030302C31303030302C0D0ABD
:10059000313337322C323534382C313339352C3233
:1005A0003539312C313339372C323539352C31331B
:1005B00039322C323538342C313338332C3235360D
:1005C000392C313430342C323630372C313432350A
:1005D0002C323634372C313430362C323631302C04
:1005E000313338332C323536392C313333382C32E1
:1005F0003438342C313332342C323435382C3133D6
:1006000032342C323435382C313332352C323436C6
:10061000312C313332392C323436392C31333134B8
:100620002C323434302C313332342C323435382CB3
:10063000313331302C323433342C313331352C32A8
:100640003434312C313330332C323431392C32368E
:1006500033322C343838382C0D0A313337392C32B8
:100660003536312C313430322C323630342C313472
:1006700030362C323631302C313430312C32363069
:10068000312C313339342C323538382C3134313146
:100690002C323632302C313432302C323633382C46
:1006A000313430362C323631322C313338392C3229
:1006B0003537392C313339392C323539392C3133FE
:1006C00032302C323435312C313332322C32343515
:1006D000342C313332342C323435382C31333239F6
:1006E0002C323436372C313331342C323434302CF4
:1006F000313332342C323436302C313331302C32E9
:100700003433342C313331322C323433362C3132D1
:1007100037342C323336362C2D333030302C3130C8
:100720003030302C0D0A313339302C323538322C00
:10073000313431322C323632322C313431352C32A4
:100740003632372C313431302C323631382C31348A
:1007500030342C323630372C313430302C32363085
:10076000302C313339372C323539352C313339355A
:100770002C323539312C313338382C323537382C4E
:10078000313337332C323535312C313331332C3250
:100790003433382C313331352C323434332C31333B
:1007A00031372C323434372C313332322C32343529
:1007B000362C313330362C323432362C313331371B
:1007C0002C323434372C313330332C323432312C18
:1007D000313330362C323432352C313236372C32FC
:1007E0003335332C2D333030302C31303030302C09
:1007F0000D0A313430352C323630392C3134323226
:100800002C323634322C313432352C323634362CCC
:10081000313432302C323633382C313431352C32BD
:100820003632392C313431312C323632302C3134AD
:1008300030382C323631362C313430352C3236309B
:10084000392C313339392C323539372C313338336F
:100850002C323536392C313330302C323431342C83
:10086000313330332C323431392C313330342C3273
:100870003432322C313331302C323433322C313269
:1008800039332C323430312C313330342C32343251
:10089000322C313238382C323339322C313239342F
:1008A0002C323430322C313238302C323337362C33
:1008B000323630392C343834352C0D0A3134323755
:1008C0002C323634392C313435352C323730312C0A
:1008D000313436332C323731372C313436322C32F6
:1008E0003731362C313436322C323731342C3134E6
:1008F00036302C323731322C313436302C323731DD
:10090000322C313435382C323730382C31343535BF
:100910002C323730312C313435312C323639352CBC
:10092000313238302C323337362C313238332C32A6
:100930003338332C313238352C323338362C31328F
:1009400038392C323339352C313237342C32333676
:10095000362C313238352C323338362C3132363968
:100960002C323335372C313237312C323336312C6F
:10097000313233342C323239322C2D333030302C6A
:0809800031303030302C0D0A3B
:00000001FF
